:060000000A128A110C280F
:10000800FE00030EF3000A08F4000A128A111428ED
:100018000A128A110F28F90183010A128A1143284A
:100028008312031386140230F2000430F100BA3050
:10003800F000F00B1D28F10B1D28F20B1D28000005
:100048008312031386100C1E2A282B283C2806141A
:100058000230F2000430F100BA30F000F00B322820
:10006800F10B3228F20B322800008312031306101A
:1000780074088A00730E8300FE0E7E0E09000A12B1
:100088008A1169200A128A110A128A117B200A121F
:100098008A110A128A1196200A128A1161300A12EC
:1000A8008A118A200A128A110230F8000430F700F7
:1000B800BA30F600F60B5E28F70B5E28F80B5E28C0
:1000C800000052280A128A110C288316031387018C
:1000D800071787171815623099001812831203132F
:1000E8009817181683160313981618130800831206
:1000F8000313860183160313860106148614061556
:10010800861583160317880189010800F5008316F0
:100118000313981C902891288B28750883120313C1
:10012800990008008B170B13831603130C1608008D
:08400000FF3FFF3FFF3FFF3FC0
:04400E00D22FFF3F6F
:00000001FF
