:060000000A128A110C280F
:10000800FE00030EF6000A08F7000A128A111428E7
:100018000A128A110F28F80183010A128A11C628C8
:100028008312031386140230F5000430F400BA304A
:10003800F300F30B1D28F40B1D28F50B1D280000F9
:100048008312031386100230F5000430F400BA302E
:10005800F300F30B2D28F40B2D28F50B2D280000A9
:10006800831203138C1E39283A289728981C3D2898
:100078003E28632886150230F5000430F400BA30B3
:10008800F300F30B4528F40B4528F50B4528000031
:100098008312031386110230F5000430F400BA30DD
:1000A800F300F30B5528F40B5528F50B55280000E1
:1000B80083120313181200008312031318160A126E
:1000C8008A119E200A128A11F3007308F800613021
:1000D8007806031D702871289728831203130614C5
:1000E8008614061586153330F500BB30F400DF3072
:1000F800F300F30B7D28F40B7D28F50B7D2884286D
:100108008312031306108610061186110230F500BB
:100118000430F400BA30F300F30B9028F40B902865
:10012800F50B9028000077088A00760E8300FE0EF3
:100138007E0E0900831203138C1EA328A4289E2870
:1001480006150230F2000430F100BA30F000F00B6E
:10015800AB28F10BAB28F20BAB280000831203137A
:1001680006110230F2000430F100BA30F000F00B52
:10017800BB28F10BBB28F20BBB280000831203132A
:100188001A0808000A128A1108210A128A110A128A
:100198008A111D210A128A1161300A128A11E92076
:1001A8000A128A11023083120313A6000430A50034
:1001B800B930A400A40BDE28A50BDE28A60BDE2888
:1001C800E528D0280A128A110C2883120313A300E9
:1001D8000614023083120313A2000430A100B930C0
:1001E800A000A00BF528A10BF528A20BF528FC28E8
:1001F8008312031306102308990083160313981C0F
:10020800062907290129080083160313870180306E
:100218008700181562309900181283120313981773
:10022800181683160313981618138B170B178C16AA
:1002380008008312031386018316031386018316AD
:08024800031788018901080079
:08400000FF3FFF3FFF3FFF3FC0
:04400E00D22FFF3F6F
:00000001FF
